:100000000C9446000C945D000C945D000C945D0013
:100010000C945D000C945D000C945D000C945D00EC
:100020000C945D000C945D000C945D000C945D00DC
:100030000C945D000C945D000C945D000C945D00CC
:100040000C945D000C945D000C945D000C945D00BC
:100050000C945D000C945D000C945D000C945D00AC
:100060000C945D000C945D000C945D000C945D009C
:100070000C945D000C945D000C945D000C945D008C
:100080000C945D000C945D000C945D0011241FBE67
:10009000CFEFD0E4DEBFCDBF11E0A0E0B1E0E6E2FB
:1000A000F1E000E00BBF02C007900D92AE30B10747
:1000B000D9F70E9470000C9491000C940000CF932B
:1000C000C82F8A3019F48DE00E945F008091C00033
:1000D00085FFFCCFC093C60080E090E0CF910895EB
:1000E00011B88FEF82B987B918B880B1882361F051
:1000F000833060F0853060F0873060F08A3060F0E7
:100100008D3060F48EE30BC080E409C080E607C048
:1001100080E705C088E303C08CE301C08FE388B9A2
:06012000E4CFF894FFCFCC
:0E01260000000002000000005F00000000006A
:00000001FF
