:100000000C9456000C946D000C946D000C946D00D3
:100010000C946D000C946D000C946D000C946D00AC
:100020000C946D000C946D000C946D000C946D009C
:100030000C946D000C946D000C946D000C946D008C
:100040000C946D000C946D000C946D000C946D007C
:100050000C946D000C946D000C946D000C946D006C
:100060000C946D000C946D000C946D000C946D005C
:100070000C946D000C946D000C946D000C946D004C
:100080000C946D000C946D000C946D00AF00910009
:1000900093009500970099009B009D009F00A10090
:1000A000A300A500A700A900AB00AD0011241FBE4E
:1000B000CFEFD0E4DEBFCDBF11E0A0E0B1E0EAE7D2
:1000C000F1E000E00BBF02C007900D92AE30B10727
:1000D000D9F70E9480000C94BB000C940000CF93D1
:1000E000C82F8A3019F48DE00E946F009091C000F3
:1000F00095FFFCCFC093C60080E090E0CF910895BB
:1001000011B88FEF82B987B918B820E0E0B18E2F0F
:1001100090E08031910520F5FC01EA5BFF4F0C94E3
:10012000B20020E61DC020E61BC020E719C020E772
:1001300017C028E315C028E313C029E311C029E341
:100140000FC029E30DC02EE30BC02EE309C02EE340
:1001500007C02FE305C02FE303C02FE301C020E455
:1001600028B9D4CFEE0FFF1F0024001C0BBE079050
:0A017000F691E02D0994F894FFCFFA
:0E017A0000000002000000006F000000000006
:00000001FF
